:03000000020118E2
:0C011800787FE4F6D8FD75810802000332
:100108003F065B4F666D7D077F6F777C395E79713F
:10000300E4F5807590F712009EEF1200CD00537750
:10001300004E7B00497D00447E0067B70062BB0051
:100023005DBD0058BE007BD70076DB0071DD006C40
:10003300DE0094E7008AEB0085ED0080EE0000000F
:10004300099001088044900109803F90010A803A99
:1000530090010B803590010C803090010D802B9026
:10006300010E802690010F8021900110801C9001C9
:100073001180179001128012900113800D900114CA
:1000830080089001158003900116E493F580020027
:0B00930009900117E493F580020009BA
:10009E0075B0F0E5B054F0F50864F0601F7F647E33
:1000AE00001200F3E50864F06012E5B054F0F508B4
:0E00BE00440FF5B0E5B0540F2508FF227FFF78
:0100CC002211
:1000F300D3EF9400EE9400400B7D6EDDFEEF1F7096
:04010300EF1E80EC7F
:0101070022D5
:1000CD00D083D082F8E4937012740193700DA3A3C2
:1000DD0093F8740193F5828883E4737402936860D6
:0600ED00EFA3A3A380DFD6
:00000001FF
