:0818870027414D452F56455243
:100EF200820B00008105008208012C810101810A18
:100F02000060AB003B010000010101020101010090
:100F120001010201010202000001000200010103BD
:100F220001000001010101020001000200010101B2
:100F32000205000001000200020106020002010295
:100F42000201020700000001010102010401000286
:100F520000020102020902000001010102010A016C
:100F6200000101010202020B000001000200000167
:100F72000800000001010101020D01000200000150
:100F820001010C02000101020101020F0000010037
:100F9200010102010E010001010102010311000120
:100FA200010102010301100100020001010201120C
:0A0FB2008206012C8202012CC1838B
:10086F00782C7440F2087401F27B0D7D21FF121475
:10087F002E782C7440F2087401F27B0E7D21FF124A
:10088F00142E782C7464F2087401F27B0F7D21E42E
:10089F00FF12142E782C7464F2087401F27B0F7D12
:1008AF0022E4FF12142E782C7440F2087401F27BAC
:1008BF00737D21FF12142E782C7440F2087401F20C
:1008CF007B747D21FF12142E782C7464F20874014E
:1008DF00F27B0F7D5FE4FF12142E782C7464F20804
:1008EF007401F27B0F7D60E4FF12142E7F01E47818
:1008FF0027F27827E2FEC39414502075F015EFA469
:10090F0024E6F582E5F03400F583E5822EF582E4E6
:10091F003583F583E4F0E204F280D70FEFB40DCE08
:10092F007F0175F015EFA424FAF582E5F03400F598
:10093F00837401F00FEFB40DE9E47827F27827E222
:10094F00FFC39414501F74E62FF582E43400F5832F
:10095F007401F074F72FF582E43401F5837401F01C
:10096F00E204F280D8E47828F2187403F27827E2D0
:10097F00FDD3940C501808E2FB782F7401F2FF128C
:10098F0015367828E204F218E22402F280DF782F7D
:10099F007401F27B067D037F0D121536782F7401DB
:1009AF00F27B087D087F0D121536E4FF1206EE78F4
:1009BF000AE2FB7D0B7F0D121701780AE22401FD7D
:1009CF00E433FC7E017F2C12036D7808EEF208EF02
:0E09DF00F2E4780BF208F2087405F2E408F274
:0109ED0022E7
:1016C60078017401F212086F782F7401F27B097D9C
:1016D600037F071215367B077D067F0712170178F1
:1016E6002F7401F27B0A7D087F07121536782F7456
:0B16F60001F27B0B7D0A7F0702153616
:0A03D400F583E0FE08E22EFDC201F1
:1003DE00EF75F005A4241E782CF2ED75F005A4241B
:1003EE000F08F22001030204AFE408F2782EE2FFB8
:1003FE00C394055014782CE22FFF08E2FDD20212AE
:10040E001581782EE204F280E3782DE22404F2E4E2
:10041E0008F2782EE2FFC394055014782CE22FFFD9
:10042E0008E2FDD202121581782EE204F280E3E496
:10043E00782EF2782EE2FEC394055015782CE2FF4A
:10044E0008E2C39EFDD202121581782EE204F280DC
:10045E00E2782CE22404F2E4782EF2782EE2FEC347
:10046E0094055015782CE2FF08E2C39EFDD20212CD
:10047E001581782EE204F280E2782DE224FCF2E47B
:10048E0008F2782EE2FE782CE2C39EFF08E22EFDE3
:10049E00D202121581782EE204F2E2C3940540E2F4
:1004AE0022E4782EF2782EE2FFC394055014782CB5
:1004BE00E22FFF08E2FDC202121581782EE204F24D
:1004CE0080E3782DE22404F2E408F2782EE2FFC3F2
:1004DE0094055014782CE22FFF08E2FDC20212158B
:1004EE0081782EE204F280E3E4782EF2782EE2FE9A
:1004FE00C394055015782CE2FF08E2C39EFDC2029C
:10050E00121581782EE204F280E2782CE22404F2B5
:10051E00E4782EF2782EE2FEC394055015782CE284
:10052E00FF08E2C39EFDC202121581782EE204F28C
:10053E0080E2782DE224FCF2E408F2782EE2FE78D6
:10054E002CE2C39EFF08E22EFDC202121581782E08
:09055E00E204F2E2C3940540E25C
:010567002271
:1012A300E4FF7804E2FE75F009A4243CF582E434FB
:1012B30000F58375F002EF1203C2E0FD780EE22D14
:1012C300FDE433FCEE75F009A4243BF582E434001D
:1012D300F58375F002EF1203C2E0FE18E22E75F0FB
:1012E30015A424D1F582E5F03400F583E5822DF5CC
:1012F30082E5833CF583E0B40102D3220FEFB4040B
:02130300A1C384
:0113050022C5
:10130600E4FF7804E2FE75F009A4243CF582E43497
:1013160000F58375F002EF1203C2E0FD780EE22DB0
:10132600FDE433FCEE75F009A4243BF582E43400B9
:10133600F58375F002EF1203C2E0FE18E22E75F097
:1013460015A424FBF582E5F03400F583E5822DF53E
:1013560082E5833CF583E0B40102D3220FEFB404A7
:02136600A1C321
:011368002262
:10136900E4FF7804E2FE75F009A4243CF582E43434
:1013790000F58375F002EF1203C2E0FD780EE22D4D
:10138900FDE433FCEE75F009A4243BF582E4340056
:10139900F58375F002EF1203C2E0FE18E22E75F034
:1013A90015A424E7F582E5F03400F583E5822DF5EF
:1013B90082E5833CF583E0B40102D3220FEFB40444
:0213C900A1C3BE
:0113CB0022FF
:10116000E4FF7804E275F009A42443F582E4340036
:10117000F583E0FE75F009A4243CF582E43400F523
:101180008375F002EF1203C2E0FD780EE22DFDE45C
:1011900033FCEE75F009A4243BF582E43400F583BA
:1011A00075F002EF1203C2E0FE18E22E75F015A4EE
:1011B00024E6F582E5F03400F583E5822DF582E53D
:1011C000833CF583E0B40102D3220FEFB40493C350
:0111D00022FC
:0D181E007800E22431F2E275F01384AFF09F
:01182B00229A
:1006EE00EF75F00AA4FFAEF0780CE22FF218E23E9E
:1006FE00F2E2FE08E2FFC3940AEE940050067C007C
:10070E007D0A8031780BE2FE08E2FFC39464EE941A
:10071E0000502E7C007D0A12036DAB057D067F0E08
:10072E00121701780BE2FE08E2FF7C007D0A12032D
:10073E006D7C007D6412036DAB057D067F0D020896
:10074E000C780BE2FE08E2FFC394E8EE94035047E8
:10075E007C007D0A12036DAB057D067F0E1217011C
:10076E00780BE2FE08E2FF7C007D0A12036D7C002E
:10077E007D0A12036DAB057D067F0D121701780BF6
:10078E00E2FE08E2FF7C007D6412036D7C007D0AB0
:10079E0012036DAB058063780BE2FE08E2FF7C006E
:1007AE007D0A12036DAB057D067F0F121701780BC4
:1007BE00E2FE08E2FF7C007D0A12036D7C007D0ADA
:1007CE0012036DAB057D067F0E121701780BE2FE4C
:1007DE0008E2FF7C007D6412036D7C007D0A12032B
:1007EE006DAB057D067F0D121701780BE2FE08E258
:1007FE00FF7C037DE812036DAB077D067F0C12179D
:10080E0001780BE2FA08E2FB7C037DE8FFAE0212F0
:10081E00036DED4C704AD3EB9400EA94004041789E
:10082E000AE204F2E2640A702C780104F2782FF2E4
:10083E007B0C7D057F07121536782F7401F27B0D28
:10084E007D077F07121536782F7401F27B0E7D0916
:10085E007F07121536780AE2FB7D0B7F0D1217010A
:01086E002267
:1009EE00E47828F208F2782A7401F2782AE2FFC33A
:1009FE00940D4003020B3018E2F9FD780EE2FE2D45
:100A0E00FDE433FC75F015EFA424E6F582E5F03431
:100A1E0000F583E5822DF582E5833CF583E07003D6
:100A2E00020B30782AE2640C6003020B28EE297860
:100A3E0027F2C394144003020B2808E204F2782B29
:100A4E007401F2782BE2FFC3940D502F7827E2FD4C
:100A5E00C2011203DE7827E2FF782BE275F015A4AF
:100A6E0024E6F582E5F03400F583E5822FF582E485
:100A7E003583F583E4F0E204F280C8C200782B746B
:100A8E0001F2782BE2FFC3940D4003020B1D782771
:100A9E00E2FE75F015EFA424E5F582E5F03400F5DD
:100AAE0083E5822EF582E43583F583E06401705789
:100ABE00D200782BE2FFEE14FDC2011203DE78277E
:100ACE00E2FD782BE2FF75F015A424E5F582E5F042
:100ADE003400F583E5822DF582E43583F583E4F069
:100AEE00D2011203DE7827E2FF782BE275F015A40F
:100AFE0024E6F582E5F03400F583E5822FF582E4F5
:100B0E003583F5837401F0782BE204F2020A9030FB
:100B1E0000087827E214F2020A89782AE204F20227
:100B2E0009F97829E204F2E2C3940450030209F4AD
:090B3E007828E2FF60031206EEC4
:010B4700228B
:0D056800780DE2FF08E2FD7804E2FBC2001E
:100575007827EFF208EDF208EBF2200003020647B8
:10058500E2FE75F009A4243BF582E43400F583E02E
:10059500FF7827E22FFFEE75F009A4243CF582E4ED
:1005A5003400F583E0FE08E22EFDD2011203DE7869
:1005B50029E2FE75F009A4243DF582E43400F583B3
:1005C500E0FF7827E22FFFEE75F009A4243EF582BF
:1005D500E43400F583E0FE08E22EFDD2011203DECD
:1005E5007829E2FE75F009A4243FF582E43400F58C
:1005F50083E0FF7827E22FFFEE75F009A42440F58C
:1006050082E43400F583E0FE08E22EFDD2011203F8
:10061500DE7829E2FE75F009A42441F582E4340070
:10062500F583E0FF7827E22FFFEE75F009A4244259
:10063500F582E43400F583E0FE08E22EFDD20102E6
:1006450006EA7829E2FE75F009A4243BF582E43434
:1006550000F583E0FF7827E22FFFEE75F009A4246B
:100665003CF582E434001203D47829E2FE75F009E2
:10067500A4243DF582E43400F583E0FF7827E22FDA
:10068500FFEE75F009A4243EF582E434001203D48C
:100695007829E2FE75F009A4243FF582E43400F5DB
:1006A50083E0FF7827E22FFFEE75F009A42440F5DB
:1006B50082E434001203D47829E2FE75F009A424FB
:1006C50041F582E43400F583E0FF7827E22FFFEE61
:1006D50075F009A42442F582E43400F583E0FE08B0
:0906E500E22EFDC2011203DE2227
:100C94007801E264017003020DCB200303020D28E6
:100CA400C203780D7405F2E408F27805E2FB18F249
:100CB400C2007D127F0F12057512181E7805EFF21F
:100CC400780DE2FF08E2FD7804E2FBD2001205751C
:100CD4007805E2FBD2007D127F0F120575121369AD
:100CE4004003020DCB78017401F2782A7472F2C2C7
:100CF400007B5E7D0F7F2312123A7BFF7A1879877F
:100D0400E4782CF2087404F27D067F061215C67B83
:100D1400FF7A18798BE4782CF2087404F27D087F4A
:100D2400060215C67807E2700218E26003020DC0DD
:100D34007802E2FF08E27806CFF208EFF2121369B4
:100D44005063D203E4FF7804E2FE75F009A4243C66
:100D5400F582E43400F58375F002EF1203C2E0FD7E
:100D6400780EE22DFDE433FCEE75F009A4243BF586
:100D740082E43400F58375F002EF1203C2E0FE183A
:100D8400E22E75F015A424E6F582E5F03400F5832F
:100D9400E5822DF582E5833CF5837401F00FEFB411
:100DA40004A40209EE120568780EE204F218E2FFC8
:100DB40008E2FD7804E2FBD2000205757807E2241C
:070DC400FFF218E234FFF218
:010DCB002205
:100DCC007824E224FB605014602C147003020EB0E3
:100DDC00146071147003020ED024056003020EE43B
:100DEC0078247464F21212A35003020EF1120568F7
:100DFC00780DE214801478247464F21213065003F4
:100E0C00020EF1120568780DE204F2E2FF08E2FD31
:100E1C007804E2FB020EAB78247464F27801E2648D
:100E2C00017012780AE270057409F28033780AE2D4
:100E3C0014F2E2802B7802E4F20804F27806E4F271
:100E4C000804F22278247464F27801E26401702DB3
:100E5C00780AE2B40904E4F28006780AE204F2E2C9
:100E6C00FB7D0B7F0D121701780AE22401FDE433A0
:100E7C00FC7E017F2C12036D7808EE8064121160E9
:100E8C0040631205687804E275F009A42443F582E6
:100E9C00E43400F583E0F2FB780DE2FF08E2FDD2CA
:100EAC000002057578247464F2120003782A7472B7
:100EBC00F2C2007B5E7D0F7F2312123A12086FE4A0
:100ECC007801F22278247464F27801E270047F01D4
:100EDC0080027F007801EFF27808E2FF08E27802E6
:060EEC00CFF208EFF22234
:03189300D2AF22AF
:04188F004387012268
:0711D1007826EEF208EFF2B0
:1011D800E4FFEF75F007A42421F8E6F58308E64557
:1011E800836009EFC3940550030F80E6EFB405034D
:1011F8007F00227826E2F58308E2F582EF75F00792
:10120800A42421F8A68308A682EF75F007A4242356
:10121800F8A60408A605AC02AD03EF75F007A424F0
:1012280025F8A60408A605EF75F007A42427F8E416
:01123800F6BF
:011239002292
:10160B00EF75F007A42421F8E6FC08E64C7002C342
:10161B0022EF75F007A42421F8E4F608F6EF75F035
:10162B0007A42423F8E4F608F6EF75F007A42425A5
:10163B00F8E4F608F6EF75F007A42427F8E4F6C3F0
:01164B00227C
:10148E00E47826F27826E2FFC39405504BEF75F010
:10149E0007A42427F8E6D3940040367826E275F0A8
:1014AE0007A42421F8E6FE08E6AA06F91203CE7870
:1014BE0026E2FF75F007A42427F816EF75F007A4AF
:1014CE002425F8E6FE08E64E70077826E2FF12168F
:0B14DE000B7826E204F280AC02188FAD
:03002B000210E2DE
:1010E200C0E0C0F0C0D075D000C000C004C005C0D0
:0110F20007F6
:1010F300C2CFE4FFEF75F007A42421F8E6FC08E66D
:101103004C6046EF75F007A42423F8E6FC08E64C90
:101113007028EF75F007A42427F806EF75F007A4ED
:101123002425F8E6FC08E6FD4C601EEF75F007A4E5
:101133002423F8A60408A605800FEF75F007A4245E
:0E11430023F808E616187001160FEFB405A683
:0F115100D007D005D004D000D0D0D0F0D0E032FD
:1017BE00E4FEAF0612160B0EEEB405F675C804E481
:1017CE00F5C975CDFC75CBFC75CC1875CA18D2ADA4
:0217DE00D2CA6D
:0117E00022E6
:10002E00004720290909111321E02F20202020202C
:10003E0000F80808101010FC0404F404040428103E
:10004E000404FF041710F71434D700282466C200E6
:10005E004040FE40C014DE5052CE0088446622005E
:10006E001013965851FE28282928282B4C4880001A
:10007E0000FE4440FC40A0A0FC2020FE20202020BA
:10008E002434243F44047F043F24242424270504DD
:10009E00040424A42424A424A4A4A4A484841408BE
:1000AE00080C09131234509010101010101010106C
:1000BE00808000FE8088FC808084FE80808080802E
:1000CE00131A234A8B101330509710111111101060
:1000DE00F808F808F800FE1010FE1010101050204E
:1000EE00080C08101020409F04040404081020403F
:1000FE008080402030180EE42020202020A04000D8
:10010E00203E2845853F01FF00007F0402020000CB
:10011E0080FCA01010F800FE2020FC202020A04023
:10012E001013202444F810217D41021AE408110610
:10013E0000F888889090BE444448281030488E04B9
:10014E0010101013FE10141B30D111101011562068
:10015E00402020FE044040FE88109060588E04001F
:10016E00007F04040404FF04040408081020400067
:10017E0000FE20202020FE202020202020202000F5
:10018E0010181010FC252444442818142242800014
:10019E002030204884FE8400FC84848484FC840007
:1001AE00010101017F010101020204050810204036
:1001BE0000000000FE0000008040201098CC860455
:1001CE0020202720FB207769A2AD20272020202089
:1001DE004040FC40F880FE2058F640FC4040404035
:1001EE00007F000001010101010101010101050271
:1001FE0000FC1860800000000000000000000000FD
:10020E000000000010101010101010101000100040
:10021E0000000000000000000000000000000000D0
:0A022E0010111213141516171819F9
:080FBC00821F000082211000D9
:0100290022B4
:1017FA007590FFD2A7C2A6D2A6E59060F6E59064DE
:04180A000160F02267
:0E182C007590FFD2A7C2A6D2A6E59060F62264
:0E183A007590FFD2A7C2A6D2A6E59060F62256
:0E1848007590FFD2A7C2A6D2A6E59060F62248
:04180E0012032EFF94
:0C1812001217FAC2A78F90C2A5D2A5221F
:0A187D001217FAC2A7C2A6D2A622D3
:0C1871001217FAD2A7C2A58F90D2A522B0
:061856007830E2FF7DC0C6
:08185C00121812AF0502187109
:0D186400121812AF05121812AF030218710E
:101764007B40E4FDFF1218640B7F101218640B7D9C
:1017740010E4FF1218640BE4FD7F101218647B223E
:0F1784007F031218647F801218717F9F02187103
:100003007B24E4FDFF1218647FB0121871E4FCE452
:10001300FF1218120DBD00010CE4B505F2ECB4019A
:06002300EE7FB20218712D
:10164C007830E2FF7DC012185CE204F209782CE2DB
:03165C00FFAD01DE
:02165F00AC07D6
:10166100ED75F010A4FFEC7C002FFFEC35F0FE7857
:1016710020E22FFF18E23EFE7839F208EFF2EEFD8C
:08168100E2FCFF7B2402186467
:02179300AC07A1
:10179500ED75F010A4FFEC7C002FFFEC35F0FE7822
:1017A50022E22FFF18E23EFE780FF208EFF2EEFC80
:0917B500E2FFAD067B240218647A
:02158100AC07B5
:10158300ED75F010A4FFEC131313541F7A002FFF13
:10159300EA35F0FE7822E22FFF18E23EFEEC540714
:1015A300FBC374F79BFA3002034408FA782FEEF278
:1015B30008EFF2EEFCE2FFAD067B24121864AF02E3
:0315C3000218719A
:0A15C6007829EBF208EAF208E9F2D6
:1015D00012165F782DE2700818E2FF7DC002185CD9
:1015E0007FB0121871E4FE782DE2FFEEC39F501514
:1015F0007829E2FB08E2FA08E2F98E82758300128C
:0A160000180E0E80E27FB21218717E
:01160A0022BD
:06153600782CEFF2A9057C
:10153C00EB25E025E024807830F2E4FA782FE2FF06
:10154C00EAC39F502F12165912164C121856E20469
:10155C00F2782CE204F21912165B12164C12185681
:10156C00E204F2782CE204F219E2B41004E4F20979
:04157C00090A80C810
:011580002248
:0A13CC007826EBF208EAF208E9F2D5
:1013D600ED75F020A42400FFE5F0341CFEAD067B7D
:1013E60024121864782AE2FE08E27805C333CE3365
:1013F600CED8F9792BF3EE19F37FB0121871E4FD0C
:10140600FCD3782BE29D18E29C40187826E2FB0874
:10141600E2FA08E2F98D828C8312180E0DBD0001E6
:081426000C80DE7FB202187198
:07142E00782AEDF208EBF251
:10143500EF64017029F9782CE2FFE9C39F50490850
:10144500E2782AB4010AE229FF08E2FDD202800807
:10145500E229FF08E2FDC2021215810980D8E4F9EC
:10146500782CE2FFE9C39F501F08E2782AB4010AED
:10147500E2FF08E229FDD2028008E2FF08E229FD29
:08148500C2021215810980D892
:01148D00223C
:09123A007828EDF208EBF2A90797
:10124300782BE9F230002C782AE2FF7828E2D39F4A
:10125300504D782BE2F97829E2FFE9D39F500DAF87
:101263000118E2FDD2021215810980EA7828E2040E
:10127300F280D4782AE2FF7828E2D39F5021782B9A
:10128300E2F97829E2FFE9D39F500DAF0118E2FD9F
:0F129300C2021215810980EA7828E204F280D4A1
:0112A2002229
:0B1059007812EDF208EBF27811EFF2D4
:101064007818F2E408F208F27814E2FF7812E2FD4C
:10107400D39F50697818E2FF7811F21217937FB06A
:101084001218717813E2FF7811E2D39F5043781558
:10109400E2FB08E2FA08E2F9AC02FD4C7007300406
:1010A400047FFF8008ED4C7009200406FF1218121B
:1010B40080187819E2FE08E2F5828E8312180E7801
:1010C4001AE22401F218E23400F27811E204F28008
:0D10D400B27FB21218717812E204F2808B24
:0110E10022EC
:1014E900781BEFF208EDF208EBF230051D7F81124F
:1014F9001871781BE2FF08E2FD781EE27814F20801
:10150900E4F208F208F2D204801B7F801218717885
:101519001BE2FF08E2FD781EE27814F208E4F20803
:0D152900F208F2C204781DE2FB12105922F4
:0A170100782CEFF208EDF208EBF28D
:10170B00087C007DFE7BFF7A02792E7E007F0A1219
:10171B000308782CE2FF08E2FD12165F782EE22414
:09172B002FF8E2FF7DC002185CFA
:1017E1001217641200037BFF7A00792E782AE4F243
:0917F100087416F2E4FD0213CCA9
:080FC400812464812314C1069D
:100B4800782A74FEF2087400F2087425F27BFE7AA3
:030B5800007924FD
:100B5B007827EBF208EAF208E9F2C2A320B40E08F8
:100B6B00E2FB08E2FA08E2F9746F12035B20B50EA0
:100B7B007827E2FB08E2FA08E2F9E412035B20B003
:100B8B000F782AE2FB08E2FA08E2F9743D12035BE4
:100B9B0020B10F7827E2FB08E2FA08E2F9742B1276
:100BAB00035BD2A3C2A420B40F7827E2FB08E2FABE
:100BBB0008E2F9740112035B20B50F7827E2FB08FA
:100BCB00E2FA08E2F9740212035B20B00F7827E215
:100BDB00FB08E2FA08E2F9740312035B20B10F7809
:100BEB0027E2FB08E2FA08E2F9742D12035BD2A4A8
:100BFB00C2B220B40F7827E2FB08E2FA08E2F974DC
:100C0B000412035B20B50F7827E2FB08E2FA08E237
:100C1B00F9740512035B20B00F7827E2FB08E2FAA8
:100C2B0008E2F9740612035B20B10F7827E2FB0888
:100C3B00E2FA08E2F9742A12035BD2B2C2B320B40F
:100C4B000F7827E2FB08E2FA08E2F9740712035B5C
:100C5B0020B50F7827E2FB08E2FA08E2F9740812D4
:100C6B00035B20B00F7827E2FB08E2FA08E2F97485
:100C7B000912035B20B10F7827E2FB08E2FA08E2C6
:090C8B00F9742F12035BD2B322AD
:101734002006177824E264647025120B487824E2AA
:101744006464601BD2067464F2227823E2700B1284
:0F1754000B4878237414F2C206227823E214F2B1
:011763002263
:101689001217BE1217E11216C67E0C7F947B037ADD
:1016990000E4FDFC1211D17E177F347B037A007DB3
:1016A900017C001211D17E0D7FCC7B057A007D0271
:0D16B9007C001211D112189312148E80FBC8
:03000000020FCD1F
:0C0FCD00787FE4F6D8FD75814302101413
:10023800E709F608DFFA8046E709F208DFFA803EA8
:1002480088828C83E709F0A3DFFA8032E309F60895
:10025800DFFA8078E309F208DFFA807088828C83FD
:10026800E309F0A3DFFA806489828A83E0A3F608B1
:10027800DFFA805889828A83E0A3F208DFFA804C8B
:1002880080D280FA80C680D4806980F28033801062
:1002980080A680EA809A80A880DA80E280CA8033CB
:1002A80089828A83ECFAE493A3C8C582C8CCC58343
:1002B800CCF0A3C8C582C8CCC583CCDFE9DEE78013
:1002C8000D89828A83E493A3F608DFF9ECFAA9F092
:1002D800EDFB2289828A83ECFAE0A3C8C582C8CCE8
:1002E800C583CCF0A3C8C582C8CCC583CCDFEADE01
:1002F800E880DB89828A83E493A3F208DFF980CC63
:1003080088F0EF60010E4E60C388F0ED2402B4045B
:100318000050B9F582EB2402B4040050AF23234502
:060328008223900288739D
:10032E00BB010CE58229F582E5833AF583E0225084
:10033E0006E92582F8E622BBFE06E92582F8E222CE
:0D034E00E58229F582E5833AF583E49322E8
:10035B00BB010689828A83F0225002F722BBFE0181
:02036B00F3227B
:10036D00BC000BBE0029EF8DF084FFADF022E4CC74
:10037D00F875F008EF2FFFEE33FEEC33FCEE9DEC3D
:10038D00984005FCEE9DFE0FD5F0E9E4CEFD22ED83
:10039D00F8F5F0EE8420D21CFEADF075F008EF2FCD
:1003AD00FFED33FD4007985006D5F0F222C398FDBE
:0503BD000FD5F0EA225B
:0C03C200A42582F582E5F03583F5832246
:0603CE008A838982E473BA
:100FD900021689E493A3F8E493A34003F68001F28F
:100FE90008DFF48029E493A3F85407240CC8C33319
:100FF900C4540F4420C8834004F456800146F6DFE8
:10100900E4800B0102040810204080900EF2E47E77
:10101900019360BCA3FF543F30E509541FFEE493DC
:10102900A360010ECF54C025E060A840B8E493A3A3
:10103900FAE493A3F8E493A3C8C582C8CAC583CACE
:10104900F0A3C8C582C8CAC583CADFE9DEE780BE86
:010FCC000024
:00000001FF
