:0300000002009C5F
:0C009C00787FE4F6D8FD75810702007E35
:100026003531B5A5C6ACBBFABFAAB7A2B0E5B4AE2A
:10003600BFDAB2E2CAD4B3CCD0F20D0A09C4CFBE3D
:0C004600A9B0AECBBCB5E7D7D30D0A00C3
:0E008E00759850438920758DFDD28ED2AF2219
:10007E0012008E7BFF7A00792612006BD2AC80FEC6
:0800A8008F993099FDC29922E5
:10006B00120052FF600C1200A8740129F9E43AFA4D
:03007B0080EE22F2
:03002300020003D5
:07000300C0D075D000C0075A
:10000A00309808C298AF998FA08F99309902C299F7
:05001A00D007D0D03238
:10005200BB010689828A83E0225002E722BBFE02AC
:09006200E32289828A83E49322DF
:00000001FF
