:0300000002007982
:0C007900787FE4F6D8FD758108020003D2
:1000030075A0FEE4F50812006BE5A025E0F5A00558
:1000130008E508C3940840EE75A07FE4F5081200D4
:100023006BE5A0C313F5A00508E508C3940840EEEB
:1000330075A0FEE4F50812006BE5A025E0F5A043EA
:10004300A0010508E508C3940840EB75A07FE4F51B
:1000530008E508C3940850A812006BE5A0C313F584
:08006300A043A080050880E91C
:04006B007F207E4E26
:0A006F00EF1F70011E144E70F722FF
:00000001FF
