:0300000002007388
:0C007300787FE4F6D8FD758107020003D9
:05007F003F065B4F6627
:100003007590F790007FE493F58020B0117F0A127A
:10001300006520B00690008012005F30B0FD20B173
:10002300117F0A12006520B10690008112005F3033
:10003300B1FD20B2117F0A12006520B20690008242
:1000430012005F30B2FD20B3C17F0A12006520B3F6
:0C0053000690008312005F20B3B080FB19
:06005F00E493F5807F58D8
:0D006500EFD3940040077E6EDEFE1F80F397
:01007200226B
:00000001FF
